{
    "contractName": "HavaToken",
    "abi": [
        {
            "anonymous": false,
            "inputs": [
                {
                    "indexed": true,
                    "internalType": "address",
                    "name": "owner",
                    "type": "address"
                },
                {
                    "indexed": true,
                    "internalType": "address",
                    "name": "spender",
                    "type": "address"
                },
                {
                    "indexed": false,
                    "internalType": "uint256",
                    "name": "value",
                    "type": "uint256"
                }
            ],
            "name": "Approval",
            "type": "event"
        },
        {
            "anonymous": false,
            "inputs": [
                {
                    "indexed": true,
                    "internalType": "address",
                    "name": "from",
                    "type": "address"
                },
                {
                    "indexed": true,
                    "internalType": "address",
                    "name": "to",
                    "type": "address"
                },
                {
                    "indexed": false,
                    "internalType": "uint256",
                    "name": "value",
                    "type": "uint256"
                }
            ],
            "name": "Transfer",
            "type": "event"
        },
        {
            "inputs": [
                {
                    "internalType": "address",
                    "name": "owner",
                    "type": "address"
                },
                {
                    "internalType": "address",
                    "name": "spender",
                    "type": "address"
                }
            ],
            "name": "allowance",
            "outputs": [
                {
                    "internalType": "uint256",
                    "name": "",
                    "type": "uint256"
                }
            ],
            "stateMutability": "view",
            "type": "function"
        },
        {
            "inputs": [
                {
                    "internalType": "address",
                    "name": "spender",
                    "type": "address"
                },
                {
                    "internalType": "uint256",
                    "name": "amount",
                    "type": "uint256"
                }
            ],
            "name": "approve",
            "outputs": [
                {
                    "internalType": "bool",
                    "name": "",
                    "type": "bool"
                }
            ],
            "stateMutability": "nonpayable",
            "type": "function"
        },
        {
            "inputs": [
                {
                    "internalType": "address",
                    "name": "account",
                    "type": "address"
                }
            ],
            "name": "balanceOf",
            "outputs": [
                {
                    "internalType": "uint256",
                    "name": "",
                    "type": "uint256"
                }
            ],
            "stateMutability": "view",
            "type": "function"
        },
        {
            "inputs": [],
            "name": "buyToken",
            "outputs": [],
            "stateMutability": "payable",
            "type": "function"
        },
        {
            "inputs": [],
            "name": "costPerToken",
            "outputs": [
                {
                    "internalType": "uint256",
                    "name": "",
                    "type": "uint256"
                }
            ],
            "stateMutability": "view",
            "type": "function"
        },
        {
            "inputs": [],
            "name": "decimals",
            "outputs": [
                {
                    "internalType": "uint8",
                    "name": "",
                    "type": "uint8"
                }
            ],
            "stateMutability": "view",
            "type": "function"
        },
        {
            "inputs": [
                {
                    "internalType": "address",
                    "name": "",
                    "type": "address"
                }
            ],
            "name": "locked",
            "outputs": [
                {
                    "internalType": "uint256",
                    "name": "timestamp",
                    "type": "uint256"
                },
                {
                    "internalType": "address",
                    "name": "router",
                    "type": "address"
                },
                {
                    "internalType": "uint256",
                    "name": "nonce",
                    "type": "uint256"
                }
            ],
            "stateMutability": "view",
            "type": "function"
        },
        {
            "inputs": [],
            "name": "name",
            "outputs": [
                {
                    "internalType": "string",
                    "name": "",
                    "type": "string"
                }
            ],
            "stateMutability": "view",
            "type": "function"
        },
        {
            "inputs": [
                {
                    "internalType": "uint256",
                    "name": "amount",
                    "type": "uint256"
                },
                {
                    "internalType": "uint256",
                    "name": "nonce",
                    "type": "uint256"
                },
                {
                    "internalType": "bytes",
                    "name": "signature",
                    "type": "bytes"
                }
            ],
            "name": "releaseLock",
            "outputs": [],
            "stateMutability": "nonpayable",
            "type": "function"
        },
        {
            "inputs": [
                {
                    "internalType": "uint256",
                    "name": "amount",
                    "type": "uint256"
                }
            ],
            "name": "sellToken",
            "outputs": [],
            "stateMutability": "nonpayable",
            "type": "function"
        },
        {
            "inputs": [
                {
                    "internalType": "uint256",
                    "name": "amount",
                    "type": "uint256"
                },
                {
                    "internalType": "uint256",
                    "name": "nonce",
                    "type": "uint256"
                },
                {
                    "internalType": "bytes",
                    "name": "signature",
                    "type": "bytes"
                }
            ],
            "name": "setLock",
            "outputs": [],
            "stateMutability": "nonpayable",
            "type": "function"
        },
        {
            "inputs": [],
            "name": "symbol",
            "outputs": [
                {
                    "internalType": "string",
                    "name": "",
                    "type": "string"
                }
            ],
            "stateMutability": "view",
            "type": "function"
        },
        {
            "inputs": [],
            "name": "totalSupply",
            "outputs": [
                {
                    "internalType": "uint256",
                    "name": "",
                    "type": "uint256"
                }
            ],
            "stateMutability": "view",
            "type": "function"
        },
        {
            "inputs": [
                {
                    "internalType": "address",
                    "name": "recipient",
                    "type": "address"
                },
                {
                    "internalType": "uint256",
                    "name": "amount",
                    "type": "uint256"
                }
            ],
            "name": "transfer",
            "outputs": [
                {
                    "internalType": "bool",
                    "name": "",
                    "type": "bool"
                }
            ],
            "stateMutability": "nonpayable",
            "type": "function"
        },
        {
            "inputs": [
                {
                    "internalType": "address",
                    "name": "sender",
                    "type": "address"
                },
                {
                    "internalType": "address",
                    "name": "recipient",
                    "type": "address"
                },
                {
                    "internalType": "uint256",
                    "name": "amount",
                    "type": "uint256"
                }
            ],
            "name": "transferFrom",
            "outputs": [
                {
                    "internalType": "bool",
                    "name": "",
                    "type": "bool"
                }
            ],
            "stateMutability": "nonpayable",
            "type": "function"
        }
    ],
    "bytecode": "610120604052600060045534801561001657600080fd5b5060408051808201825260098152682430bb30aa37b5b2b760b91b60208083019182528351808501855260058152640312e302e360dc1b908201529151902060c08181527f06c015bd22b4c69690933c1058878ebdfef31f9aaae40bbe86d8a09fe1b2972c60e08190524660a081815286517f8b73c3c69bb8fe3d512ecc4cf759cc79239f7b179b0ffacaa9a75d522b39400f818801819052818901969096526060810193909352608080840192909252308382015286518084039091018152919092019094528351939092019290922090526101005260805160a05160c05160e0516101005161102e6101316000396000610af801526000610b4701526000610b2201526000610aa701526000610acf015261102e6000f3fe6080604052600436106100e85760003560e01c806368a4a2b71161008a578063a9059cbb11610059578063a9059cbb14610262578063cbf9fe5f14610282578063cc728bcb146102ea578063dd62ed3e1461030a57600080fd5b806368a4a2b71461020457806370a082311461022457806395d89b41146100ed578063a48217191461025a57600080fd5b80632397e4d7116100c65780632397e4d71461018257806323b872dd146101a4578063313ce567146101c45780633ba523c7146101eb57600080fd5b806306fdde03146100ed578063095ea7b31461013357806318160ddd14610163575b600080fd5b3480156100f957600080fd5b5061011d604051806040016040528060048152602001634841564160e01b81525081565b60405161012a9190610d3e565b60405180910390f35b34801561013f57600080fd5b5061015361014e366004610daf565b610350565b604051901515815260200161012a565b34801561016f57600080fd5b506004545b60405190815260200161012a565b34801561018e57600080fd5b506101a261019d366004610dd9565b6103bc565b005b3480156101b057600080fd5b506101536101bf366004610df2565b6104d3565b3480156101d057600080fd5b506101d9601281565b60405160ff909116815260200161012a565b3480156101f757600080fd5b5061017464e8d4a5100081565b34801561021057600080fd5b506101a261021f366004610e44565b61052e565b34801561023057600080fd5b5061017461023f366004610f08565b6001600160a01b031660009081526020819052604090205490565b6101a2610649565b34801561026e57600080fd5b5061015361027d366004610daf565b6106eb565b34801561028e57600080fd5b506102c761029d366004610f08565b60036020526000908152604090208054600182015460029092015490916001600160a01b03169083565b604080519384526001600160a01b0390921660208401529082015260600161012a565b3480156102f657600080fd5b506101a2610305366004610e44565b61078f565b34801561031657600080fd5b50610174610325366004610f23565b6001600160a01b03918216600090815260016020908152604080832093909416825291909152205490565b3360008181526001602090815260408083206001600160a01b038716808552925280832085905551919290917f8c5be1e5ebec7d5bd14f71427d1e84f3dd0314c0f7b2291e5b200ac8c7c3b925906103ab9086815260200190565b60405180910390a350600192915050565b336103c68161088b565b6103cf57600080fd5b336000908152602081905260409020548211156103eb57600080fd5b60006103fc8364e8d4a510006108be565b3360009081526020819052604090205490915061041990846108d1565b3360009081526020819052604090205560045461043690846108d1565b600455604051600090339083908381818185875af1925050503d806000811461047b576040519150601f19603f3d011682016040523d82523d6000602084013e610480565b606091505b50509050806104cd5760405162461bcd60e51b81526020600482015260146024820152732330b4b632b2103a379039b2b7321022ba3432b960611b60448201526064015b60405180910390fd5b50505050565b6000836104df8161088b565b6104e857600080fd5b6001600160a01b038516600090815260016020908152604080832033845290915290205483111561051857600080fd5b6105238585856108dd565b506001949350505050565b604080517fdac4abfaf72305f51f1d58d7e2c9a941157428c2fac83c9d8d30fcf8db4bdd6b6020820152908101839052600090610584906060015b604051602081830303815290604052805190602001206109bd565b905060006105928284610a04565b905061059d8161088b565b6105a657600080fd5b60008481526002602052604090205460ff16156105c257600080fd5b6000848152600260205260409020805460ff191660011790556105e68133876108dd565b604080516060810182524281523360208083019182528284019788526001600160a01b0394851660009081526003909152929092209051815590516001820180546001600160a01b03191691909316179091559251600290930192909255505050565b6106583464e8d4a51000610a7f565b1561066257600080fd5b60006106733464e8d4a51000610a8b565b6004549091506106839082610a97565b600455336000908152602081905260409020546106a09082610a97565b33600081815260208181526040918290209390935551838152909130917fddf252ad1be2c89b69c2b068fc378daa952ba7f163c4a11628f55a4df523b3ef910160405180910390a350565b6000336106f78161088b565b61070057600080fd5b3360009081526020819052604090205483111561071c57600080fd5b3360009081526020819052604090205461073690846108d1565b336000818152602081815260409182902093909355518581526001600160a01b038716927fddf252ad1be2c89b69c2b068fc378daa952ba7f163c4a11628f55a4df523b3ef910160405180910390a35060019392505050565b604080517ff6756d21fe9785edcf7ca2e3e3d60ae55e6360b0331162c4e416cbd1668a3c946020820152908101849052606081018390526000906107d590608001610569565b905060006107e38284610a04565b90506107ee8161088b565b156107f857600080fd5b6001600160a01b0381811660009081526003602052604090206001015416331461082157600080fd5b6001600160a01b038116600090815260036020526040902060020154841461084857600080fd5b6001600160a01b03811660009081526003602052604081208181556001810180546001600160a01b0319169055600201556108848133876108dd565b5050505050565b600061089a4262015180610a97565b6001600160a01b039092166000908152600360205260409020549190911115919050565b60006108ca8284610f6c565b9392505050565b60006108ca8284610f8b565b6001600160a01b03831660009081526020819052604090205481111561090257600080fd5b6001600160a01b03831660009081526020819052604090205461092590826108d1565b6001600160a01b03841660009081526020818152604080832093909355600181528282203383529052205461095a90826108d1565b6001600160a01b03848116600081815260016020908152604080832033845282529182902094909455518481529185169290917fddf252ad1be2c89b69c2b068fc378daa952ba7f163c4a11628f55a4df523b3ef910160405180910390a3505050565b60006109c7610aa3565b60405161190160f01b6020820152602281019190915260428101839052606201604051602081830303815290604052805190602001209050919050565b60008151604114610a575760405162461bcd60e51b815260206004820152601f60248201527f45434453413a20696e76616c6964207369676e6174757265206c656e6774680060448201526064016104c4565b60208201516040830151606084015160001a610a7586828585610b95565b9695505050505050565b60006108ca8284610fb8565b60006108ca8284610fcc565b60006108ca8284610fe0565b60007f00000000000000000000000000000000000000000000000000000000000000004603610af157507f000000000000000000000000000000000000000000000000000000000000000090565b50604080517f00000000000000000000000000000000000000000000000000000000000000006020808301919091527f0000000000000000000000000000000000000000000000000000000000000000828401527f000000000000000000000000000000000000000000000000000000000000000060608301524660808301523060a0808401919091528351808403909101815260c0909201909252805191012090565b60007f7fffffffffffffffffffffffffffffff5d576e7357a4501ddfe92f46681b20a0821115610c125760405162461bcd60e51b815260206004820152602260248201527f45434453413a20696e76616c6964207369676e6174757265202773272076616c604482015261756560f01b60648201526084016104c4565b8360ff16601b1480610c2757508360ff16601c145b610c7e5760405162461bcd60e51b815260206004820152602260248201527f45434453413a20696e76616c6964207369676e6174757265202776272076616c604482015261756560f01b60648201526084016104c4565b6040805160008082526020820180845288905260ff871692820192909252606081018590526080810184905260019060a0016020604051602081039080840390855afa158015610cd2573d6000803e3d6000fd5b5050604051601f1901519150506001600160a01b038116610d355760405162461bcd60e51b815260206004820152601860248201527f45434453413a20696e76616c6964207369676e6174757265000000000000000060448201526064016104c4565b95945050505050565b600060208083528351808285015260005b81811015610d6b57858101830151858201604001528201610d4f565b81811115610d7d576000604083870101525b50601f01601f1916929092016040019392505050565b80356001600160a01b0381168114610daa57600080fd5b919050565b60008060408385031215610dc257600080fd5b610dcb83610d93565b946020939093013593505050565b600060208284031215610deb57600080fd5b5035919050565b600080600060608486031215610e0757600080fd5b610e1084610d93565b9250610e1e60208501610d93565b9150604084013590509250925092565b634e487b7160e01b600052604160045260246000fd5b600080600060608486031215610e5957600080fd5b8335925060208401359150604084013567ffffffffffffffff80821115610e7f57600080fd5b818601915086601f830112610e9357600080fd5b813581811115610ea557610ea5610e2e565b604051601f8201601f19908116603f01168101908382118183101715610ecd57610ecd610e2e565b81604052828152896020848701011115610ee657600080fd5b8260208601602083013760006020848301015280955050505050509250925092565b600060208284031215610f1a57600080fd5b6108ca82610d93565b60008060408385031215610f3657600080fd5b610f3f83610d93565b9150610f4d60208401610d93565b90509250929050565b634e487b7160e01b600052601160045260246000fd5b6000816000190483118215151615610f8657610f86610f56565b500290565b600082821015610f9d57610f9d610f56565b500390565b634e487b7160e01b600052601260045260246000fd5b600082610fc757610fc7610fa2565b500690565b600082610fdb57610fdb610fa2565b500490565b60008219821115610ff357610ff3610f56565b50019056fea26469706673582212203345b9215522200d31877a8a256bc86863185ac0724be9725e2f521fac9b1b5264736f6c634300080d0033",
    "sourcePath": "c:/Users/srika/WebstormProjects/HAVA/packages/contracts/sol/HavaToken.sol",
    "compiler": {
        "name": "solc",
        "version": "0.8.13+commit.abaa5c0e"
    },
    "functionHashes": {
        "allowance(address,address)": "dd62ed3e",
        "approve(address,uint256)": "095ea7b3",
        "balanceOf(address)": "70a08231",
        "buyToken()": "a4821719",
        "costPerToken()": "3ba523c7",
        "decimals()": "313ce567",
        "locked(address)": "cbf9fe5f",
        "name()": "06fdde03",
        "releaseLock(uint256,uint256,bytes)": "cc728bcb",
        "sellToken(uint256)": "2397e4d7",
        "setLock(uint256,uint256,bytes)": "68a4a2b7",
        "symbol()": "95d89b41",
        "totalSupply()": "18160ddd",
        "transfer(address,uint256)": "a9059cbb",
        "transferFrom(address,address,uint256)": "23b872dd"
    },
    "gasEstimates": {
        "creation": {
            "codeDepositCost": "828400",
            "executionCost": "infinite",
            "totalCost": "infinite"
        },
        "external": {
            "allowance(address,address)": "infinite",
            "approve(address,uint256)": "24545",
            "balanceOf(address)": "2585",
            "buyToken()": "infinite",
            "costPerToken()": "284",
            "decimals()": "271",
            "locked(address)": "6871",
            "name()": "infinite",
            "releaseLock(uint256,uint256,bytes)": "infinite",
            "sellToken(uint256)": "infinite",
            "setLock(uint256,uint256,bytes)": "infinite",
            "symbol()": "infinite",
            "totalSupply()": "2349",
            "transfer(address,uint256)": "infinite",
            "transferFrom(address,address,uint256)": "infinite"
        },
        "internal": {
            "isUnlocked_(address)": "2348",
            "transferFromNoAllowanceCheck(address,address,uint256)": "infinite"
        }
    }
}